{
  "contractName": "ManagerOgani",
  "abi": [
    {
      "anonymous": false,
      "inputs": [
        {
          "indexed": true,
          "internalType": "address",
          "name": "previousOwner",
          "type": "address"
        },
        {
          "indexed": true,
          "internalType": "address",
          "name": "newOwner",
          "type": "address"
        }
      ],
      "name": "OwnershipTransferred",
      "type": "event"
    },
    {
      "anonymous": false,
      "inputs": [
        {
          "indexed": true,
          "internalType": "address",
          "name": "_walletUser",
          "type": "address"
        },
        {
          "indexed": true,
          "internalType": "uint256",
          "name": "_amount",
          "type": "uint256"
        }
      ],
      "name": "refundsForUser",
      "type": "event"
    },
    {
      "anonymous": false,
      "inputs": [
        {
          "indexed": false,
          "internalType": "string",
          "name": "idProduct",
          "type": "string"
        },
        {
          "indexed": false,
          "internalType": "uint256",
          "name": "amount",
          "type": "uint256"
        }
      ],
      "name": "transferSupplierSuccess",
      "type": "event"
    },
    {
      "stateMutability": "payable",
      "type": "fallback"
    },
    {
      "inputs": [
        {
          "internalType": "address",
          "name": "_newManager",
          "type": "address"
        }
      ],
      "name": "addManager",
      "outputs": [],
      "stateMutability": "nonpayable",
      "type": "function"
    },
    {
      "inputs": [],
      "name": "getAllManager",
      "outputs": [
        {
          "internalType": "address[]",
          "name": "",
          "type": "address[]"
        }
      ],
      "stateMutability": "view",
      "type": "function"
    },
    {
      "inputs": [],
      "name": "isManager",
      "outputs": [
        {
          "internalType": "bool",
          "name": "",
          "type": "bool"
        }
      ],
      "stateMutability": "view",
      "type": "function"
    },
    {
      "inputs": [
        {
          "internalType": "address",
          "name": "",
          "type": "address"
        }
      ],
      "name": "isManagers",
      "outputs": [
        {
          "internalType": "bool",
          "name": "",
          "type": "bool"
        }
      ],
      "stateMutability": "view",
      "type": "function"
    },
    {
      "inputs": [],
      "name": "isOwner",
      "outputs": [
        {
          "internalType": "bool",
          "name": "",
          "type": "bool"
        }
      ],
      "stateMutability": "view",
      "type": "function"
    },
    {
      "inputs": [],
      "name": "managerID",
      "outputs": [
        {
          "internalType": "uint256",
          "name": "",
          "type": "uint256"
        }
      ],
      "stateMutability": "view",
      "type": "function"
    },
    {
      "inputs": [
        {
          "internalType": "uint256",
          "name": "",
          "type": "uint256"
        }
      ],
      "name": "managers",
      "outputs": [
        {
          "internalType": "address",
          "name": "",
          "type": "address"
        }
      ],
      "stateMutability": "view",
      "type": "function"
    },
    {
      "inputs": [],
      "name": "owner",
      "outputs": [
        {
          "internalType": "address",
          "name": "",
          "type": "address"
        }
      ],
      "stateMutability": "view",
      "type": "function"
    },
    {
      "inputs": [
        {
          "internalType": "address",
          "name": "",
          "type": "address"
        },
        {
          "internalType": "uint256",
          "name": "",
          "type": "uint256"
        }
      ],
      "name": "paymentsToSupplier",
      "outputs": [
        {
          "internalType": "string",
          "name": "idProduct",
          "type": "string"
        },
        {
          "internalType": "uint256",
          "name": "totalPayment",
          "type": "uint256"
        },
        {
          "internalType": "address",
          "name": "supplier",
          "type": "address"
        },
        {
          "internalType": "address",
          "name": "currentAdmin",
          "type": "address"
        }
      ],
      "stateMutability": "view",
      "type": "function"
    },
    {
      "inputs": [],
      "name": "renounceOwnership",
      "outputs": [],
      "stateMutability": "nonpayable",
      "type": "function"
    },
    {
      "inputs": [
        {
          "internalType": "address",
          "name": "newOwner",
          "type": "address"
        }
      ],
      "name": "transferOwnership",
      "outputs": [],
      "stateMutability": "nonpayable",
      "type": "function"
    },
    {
      "inputs": [
        {
          "internalType": "address",
          "name": "",
          "type": "address"
        },
        {
          "internalType": "uint256",
          "name": "",
          "type": "uint256"
        }
      ],
      "name": "userOrders",
      "outputs": [
        {
          "internalType": "string",
          "name": "idOrder",
          "type": "string"
        },
        {
          "internalType": "uint256",
          "name": "totalPayment",
          "type": "uint256"
        },
        {
          "internalType": "address",
          "name": "userAddress",
          "type": "address"
        }
      ],
      "stateMutability": "view",
      "type": "function"
    },
    {
      "stateMutability": "payable",
      "type": "receive"
    },
    {
      "inputs": [],
      "name": "getBalance",
      "outputs": [
        {
          "internalType": "uint256",
          "name": "",
          "type": "uint256"
        }
      ],
      "stateMutability": "view",
      "type": "function"
    },
    {
      "inputs": [
        {
          "internalType": "string",
          "name": "_idOrder",
          "type": "string"
        }
      ],
      "name": "userPaymentOrder",
      "outputs": [],
      "stateMutability": "payable",
      "type": "function"
    },
    {
      "inputs": [
        {
          "internalType": "address",
          "name": "_addressUser",
          "type": "address"
        }
      ],
      "name": "getAllOrderUser",
      "outputs": [
        {
          "components": [
            {
              "internalType": "string",
              "name": "idOrder",
              "type": "string"
            },
            {
              "internalType": "uint256",
              "name": "totalPayment",
              "type": "uint256"
            },
            {
              "internalType": "address",
              "name": "userAddress",
              "type": "address"
            }
          ],
          "internalType": "struct ManagerOgani.UserPayment[]",
          "name": "",
          "type": "tuple[]"
        }
      ],
      "stateMutability": "view",
      "type": "function"
    },
    {
      "inputs": [
        {
          "internalType": "string",
          "name": "_idProduct",
          "type": "string"
        },
        {
          "internalType": "address",
          "name": "_supplier",
          "type": "address"
        }
      ],
      "name": "transferToSupplier",
      "outputs": [],
      "stateMutability": "payable",
      "type": "function"
    },
    {
      "inputs": [
        {
          "internalType": "address",
          "name": "_addressSupplier",
          "type": "address"
        }
      ],
      "name": "getPaymentsToSupplier",
      "outputs": [
        {
          "components": [
            {
              "internalType": "string",
              "name": "idProduct",
              "type": "string"
            },
            {
              "internalType": "uint256",
              "name": "totalPayment",
              "type": "uint256"
            },
            {
              "internalType": "address",
              "name": "supplier",
              "type": "address"
            },
            {
              "internalType": "address",
              "name": "currentAdmin",
              "type": "address"
            }
          ],
          "internalType": "struct ManagerOgani.PaymentToSupplier[]",
          "name": "",
          "type": "tuple[]"
        }
      ],
      "stateMutability": "view",
      "type": "function"
    },
    {
      "inputs": [
        {
          "internalType": "address payable",
          "name": "_to",
          "type": "address"
        }
      ],
      "name": "withdrawAll",
      "outputs": [],
      "stateMutability": "nonpayable",
      "type": "function"
    },
    {
      "inputs": [
        {
          "internalType": "address payable",
          "name": "_to",
          "type": "address"
        },
        {
          "internalType": "uint256",
          "name": "_amount",
          "type": "uint256"
        }
      ],
      "name": "withdrawAmount",
      "outputs": [],
      "stateMutability": "nonpayable",
      "type": "function"
    },
    {
      "inputs": [
        {
          "internalType": "address payable",
          "name": "_walletuser",
          "type": "address"
        },
        {
          "internalType": "uint256",
          "name": "_amount",
          "type": "uint256"
        }
      ],
      "name": "refundsOrderUser",
      "outputs": [],
      "stateMutability": "payable",
      "type": "function"
    }
  ],
  "bytecode": "0x60806040523480156200001157600080fd5b50336000806101000a81548173ffffffffffffffffffffffffffffffffffffffff021916908373ffffffffffffffffffffffffffffffffffffffff1602179055506200006333620000e460201b60201c565b60008054906101000a900473ffffffffffffffffffffffffffffffffffffffff1673ffffffffffffffffffffffffffffffffffffffff16600073ffffffffffffffffffffffffffffffffffffffff167f8be0079c531659141344cd1fd0a4f28419497f9722a3daafe3b4186f6b6457e060405160405180910390a362000361565b620000f46200020060201b60201c565b62000136576040517f08c379a00000000000000000000000000000000000000000000000000000000081526004016200012d90620002b8565b60405180910390fd5b6000600360008154809291906200014d9062000313565b919050559050816002600083815260200190815260200160002060006101000a81548173ffffffffffffffffffffffffffffffffffffffff021916908373ffffffffffffffffffffffffffffffffffffffff16021790555060018060008473ffffffffffffffffffffffffffffffffffffffff1673ffffffffffffffffffffffffffffffffffffffff16815260200190815260200160002060006101000a81548160ff0219169083151502179055505050565b60008060009054906101000a900473ffffffffffffffffffffffffffffffffffffffff1673ffffffffffffffffffffffffffffffffffffffff163373ffffffffffffffffffffffffffffffffffffffff1614905090565b600082825260208201905092915050565b7f53656e646572206e6f7420617574686f72697a65642e00000000000000000000600082015250565b6000620002a060168362000257565b9150620002ad8262000268565b602082019050919050565b60006020820190508181036000830152620002d38162000291565b9050919050565b7f4e487b7100000000000000000000000000000000000000000000000000000000600052601160045260246000fd5b6000819050919050565b6000620003208262000309565b91507fffffffffffffffffffffffffffffffffffffffffffffffffffffffffffffffff821415620003565762000355620002da565b5b600182019050919050565b61274780620003716000396000f3fe6080604052600436106101225760003560e01c8063715018a6116100a0578063a648a72611610064578063a648a726146103d6578063bb015a4014610416578063c56a3e8814610432578063f2fde38b1461045d578063fa09e6301461048657610129565b8063715018a614610301578063736fe56514610318578063856652e9146103415780638da5cb5b146103805780638f32d59b146103ab57610129565b80632d07d3b0116100e75780632d07d3b0146102035780633d39c260146102405780635a73d5ed1461027d5780636413c35e146102a857806365077a98146102e557610129565b8062215bc21461012b57806304b81d581461014757806312065fe01461018457806313102a04146101af5780632d06177a146101da57610129565b3661012957005b005b61014560048036038101906101409190611b83565b6104af565b005b34801561015357600080fd5b5061016e60048036038101906101699190611c01565b610585565b60405161017b9190611df7565b60405180910390f35b34801561019057600080fd5b50610199610897565b6040516101a69190611e28565b60405180910390f35b3480156101bb57600080fd5b506101c461089f565b6040516101d19190611e28565b60405180910390f35b3480156101e657600080fd5b5061020160048036038101906101fc9190611c01565b6108a5565b005b34801561020f57600080fd5b5061022a60048036038101906102259190611c01565b6109b4565b6040516102379190611f68565b60405180910390f35b34801561024c57600080fd5b5061026760048036038101906102629190611f8a565b610ce0565b6040516102749190611fc6565b60405180910390f35b34801561028957600080fd5b50610292610d13565b60405161029f9190612090565b60405180910390f35b3480156102b457600080fd5b506102cf60048036038101906102ca9190611c01565b610e13565b6040516102dc91906120cd565b60405180910390f35b6102ff60048036038101906102fa919061221d565b610e33565b005b34801561030d57600080fd5b506103166110cd565b005b34801561032457600080fd5b5061033f600480360381019061033a9190611b83565b6111d2565b005b34801561034d57600080fd5b5061036860048036038101906103639190612266565b611264565b604051610377939291906122f0565b60405180910390f35b34801561038c57600080fd5b50610395611353565b6040516103a29190611fc6565b60405180910390f35b3480156103b757600080fd5b506103c061137c565b6040516103cd91906120cd565b60405180910390f35b3480156103e257600080fd5b506103fd60048036038101906103f89190612266565b6113d3565b60405161040d949392919061232e565b60405180910390f35b610430600480360381019061042b919061237a565b6114e8565b005b34801561043e57600080fd5b50610447611777565b60405161045491906120cd565b60405180910390f35b34801561046957600080fd5b50610484600480360381019061047f9190611c01565b6117cb565b005b34801561049257600080fd5b506104ad60048036038101906104a891906123d6565b61181e565b005b6104b7611777565b6104f6576040517f08c379a00000000000000000000000000000000000000000000000000000000081526004016104ed9061244f565b60405180910390fd5b8173ffffffffffffffffffffffffffffffffffffffff166108fc829081150290604051600060405180830381858888f1935050505015801561053c573d6000803e3d6000fd5b50808273ffffffffffffffffffffffffffffffffffffffff167fb953430e6b2f3430b93c632c0e11165e5bbf56ce528221c5439ab00177965c0560405160405180910390a35050565b6060600760008373ffffffffffffffffffffffffffffffffffffffff1673ffffffffffffffffffffffffffffffffffffffff16815260200190815260200160002060009054906101000a900460ff16610613576040517f08c379a000000000000000000000000000000000000000000000000000000000815260040161060a906124bb565b60405180910390fd5b6000600560008473ffffffffffffffffffffffffffffffffffffffff1673ffffffffffffffffffffffffffffffffffffffff1681526020019081526020016000208054905067ffffffffffffffff811115610671576106706120f2565b5b6040519080825280602002602001820160405280156106aa57816020015b6106976119ad565b81526020019060019003908161068f5790505b50905060005b600560008573ffffffffffffffffffffffffffffffffffffffff1673ffffffffffffffffffffffffffffffffffffffff1681526020019081526020016000208054905081101561088d576000600560008673ffffffffffffffffffffffffffffffffffffffff1673ffffffffffffffffffffffffffffffffffffffff168152602001908152602001600020828154811061074d5761074c6124db565b5b906000526020600020906003020160405180606001604052908160008201805461077690612539565b80601f01602080910402602001604051908101604052809291908181526020018280546107a290612539565b80156107ef5780601f106107c4576101008083540402835291602001916107ef565b820191906000526020600020905b8154815290600101906020018083116107d257829003601f168201915b50505050508152602001600182015481526020016002820160009054906101000a900473ffffffffffffffffffffffffffffffffffffffff1673ffffffffffffffffffffffffffffffffffffffff1673ffffffffffffffffffffffffffffffffffffffff168152505090508083838151811061086e5761086d6124db565b5b60200260200101819052505080806108859061259a565b9150506106b0565b5080915050919050565b600047905090565b60035481565b6108ad61137c565b6108ec576040517f08c379a00000000000000000000000000000000000000000000000000000000081526004016108e39061262f565b60405180910390fd5b6000600360008154809291906109019061259a565b919050559050816002600083815260200190815260200160002060006101000a81548173ffffffffffffffffffffffffffffffffffffffff021916908373ffffffffffffffffffffffffffffffffffffffff16021790555060018060008473ffffffffffffffffffffffffffffffffffffffff1673ffffffffffffffffffffffffffffffffffffffff16815260200190815260200160002060006101000a81548160ff0219169083151502179055505050565b6060600860008373ffffffffffffffffffffffffffffffffffffffff1673ffffffffffffffffffffffffffffffffffffffff16815260200190815260200160002060009054906101000a900460ff16610a42576040517f08c379a0000000000000000000000000000000000000000000000000000000008152600401610a39906126c1565b60405180910390fd5b6000600660008473ffffffffffffffffffffffffffffffffffffffff1673ffffffffffffffffffffffffffffffffffffffff16815260200190815260200160002080549050905060008167ffffffffffffffff811115610aa557610aa46120f2565b5b604051908082528060200260200182016040528015610ade57816020015b610acb6119e4565b815260200190600190039081610ac35790505b50905060005b82811015610cd5576000600660008773ffffffffffffffffffffffffffffffffffffffff1673ffffffffffffffffffffffffffffffffffffffff1681526020019081526020016000208281548110610b3f57610b3e6124db565b5b9060005260206000209060040201604051806080016040529081600082018054610b6890612539565b80601f0160208091040260200160405190810160405280929190818152602001828054610b9490612539565b8015610be15780601f10610bb657610100808354040283529160200191610be1565b820191906000526020600020905b815481529060010190602001808311610bc457829003601f168201915b50505050508152602001600182015481526020016002820160009054906101000a900473ffffffffffffffffffffffffffffffffffffffff1673ffffffffffffffffffffffffffffffffffffffff1673ffffffffffffffffffffffffffffffffffffffff1681526020016003820160009054906101000a900473ffffffffffffffffffffffffffffffffffffffff1673ffffffffffffffffffffffffffffffffffffffff1673ffffffffffffffffffffffffffffffffffffffff1681525050905080838381518110610cb657610cb56124db565b5b6020026020010181905250508080610ccd9061259a565b915050610ae4565b508092505050919050565b60026020528060005260406000206000915054906101000a900473ffffffffffffffffffffffffffffffffffffffff1681565b6060600060035467ffffffffffffffff811115610d3357610d326120f2565b5b604051908082528060200260200182016040528015610d615781602001602082028036833780820191505090505b50905060005b600354811015610e0b5760006002600083815260200190815260200160002060009054906101000a900473ffffffffffffffffffffffffffffffffffffffff16905080838381518110610dbd57610dbc6124db565b5b602002602001019073ffffffffffffffffffffffffffffffffffffffff16908173ffffffffffffffffffffffffffffffffffffffff1681525050508080610e039061259a565b915050610d67565b508091505090565b60016020528060005260406000206000915054906101000a900460ff1681565b600060405180606001604052808381526020013481526020013373ffffffffffffffffffffffffffffffffffffffff168152509050600760003373ffffffffffffffffffffffffffffffffffffffff1673ffffffffffffffffffffffffffffffffffffffff16815260200190815260200160002060009054906101000a900460ff16610fef576001600760003373ffffffffffffffffffffffffffffffffffffffff1673ffffffffffffffffffffffffffffffffffffffff16815260200190815260200160002060006101000a81548160ff021916908315150217905550600560003373ffffffffffffffffffffffffffffffffffffffff1673ffffffffffffffffffffffffffffffffffffffff1681526020019081526020016000208190806001815401808255809150506001900390600052602060002090600302016000909190919091506000820151816000019080519060200190610f96929190611a38565b506020820151816001015560408201518160020160006101000a81548173ffffffffffffffffffffffffffffffffffffffff021916908373ffffffffffffffffffffffffffffffffffffffff16021790555050506110c9565b600560003373ffffffffffffffffffffffffffffffffffffffff1673ffffffffffffffffffffffffffffffffffffffff1681526020019081526020016000208190806001815401808255809150506001900390600052602060002090600302016000909190919091506000820151816000019080519060200190611074929190611a38565b506020820151816001015560408201518160020160006101000a81548173ffffffffffffffffffffffffffffffffffffffff021916908373ffffffffffffffffffffffffffffffffffffffff16021790555050505b5050565b6110d561137c565b611114576040517f08c379a000000000000000000000000000000000000000000000000000000000815260040161110b9061262f565b60405180910390fd5b600073ffffffffffffffffffffffffffffffffffffffff1660008054906101000a900473ffffffffffffffffffffffffffffffffffffffff1673ffffffffffffffffffffffffffffffffffffffff167f8be0079c531659141344cd1fd0a4f28419497f9722a3daafe3b4186f6b6457e060405160405180910390a360008060006101000a81548173ffffffffffffffffffffffffffffffffffffffff021916908373ffffffffffffffffffffffffffffffffffffffff160217905550565b6111da61137c565b611219576040517f08c379a00000000000000000000000000000000000000000000000000000000081526004016112109061262f565b60405180910390fd5b8173ffffffffffffffffffffffffffffffffffffffff166108fc829081150290604051600060405180830381858888f1935050505015801561125f573d6000803e3d6000fd5b505050565b6005602052816000526040600020818154811061128057600080fd5b9060005260206000209060030201600091509150508060000180546112a490612539565b80601f01602080910402602001604051908101604052809291908181526020018280546112d090612539565b801561131d5780601f106112f25761010080835404028352916020019161131d565b820191906000526020600020905b81548152906001019060200180831161130057829003601f168201915b5050505050908060010154908060020160009054906101000a900473ffffffffffffffffffffffffffffffffffffffff16905083565b60008060009054906101000a900473ffffffffffffffffffffffffffffffffffffffff16905090565b60008060009054906101000a900473ffffffffffffffffffffffffffffffffffffffff1673ffffffffffffffffffffffffffffffffffffffff163373ffffffffffffffffffffffffffffffffffffffff1614905090565b600660205281600052604060002081815481106113ef57600080fd5b90600052602060002090600402016000915091505080600001805461141390612539565b80601f016020809104026020016040519081016040528092919081815260200182805461143f90612539565b801561148c5780601f106114615761010080835404028352916020019161148c565b820191906000526020600020905b81548152906001019060200180831161146f57829003601f168201915b5050505050908060010154908060020160009054906101000a900473ffffffffffffffffffffffffffffffffffffffff16908060030160009054906101000a900473ffffffffffffffffffffffffffffffffffffffff16905084565b6114f0611777565b61152f576040517f08c379a00000000000000000000000000000000000000000000000000000000081526004016115269061244f565b60405180910390fd5b600660008273ffffffffffffffffffffffffffffffffffffffff1673ffffffffffffffffffffffffffffffffffffffff16815260200190815260200160002060405180608001604052808481526020013481526020018373ffffffffffffffffffffffffffffffffffffffff1681526020013373ffffffffffffffffffffffffffffffffffffffff1681525090806001815401808255809150506001900390600052602060002090600402016000909190919091506000820151816000019080519060200190611600929190611a38565b506020820151816001015560408201518160020160006101000a81548173ffffffffffffffffffffffffffffffffffffffff021916908373ffffffffffffffffffffffffffffffffffffffff16021790555060608201518160030160006101000a81548173ffffffffffffffffffffffffffffffffffffffff021916908373ffffffffffffffffffffffffffffffffffffffff16021790555050506001600860008373ffffffffffffffffffffffffffffffffffffffff1673ffffffffffffffffffffffffffffffffffffffff16815260200190815260200160002060006101000a81548160ff0219169083151502179055508073ffffffffffffffffffffffffffffffffffffffff166108fc349081150290604051600060405180830381858888f19350505050158015611739573d6000803e3d6000fd5b507f2feee9c888728bfb9ef39148b664c235a0ca4388380b3dbccaecb352389d66ea823460405161176b9291906126e1565b60405180910390a15050565b6000600160003373ffffffffffffffffffffffffffffffffffffffff1673ffffffffffffffffffffffffffffffffffffffff16815260200190815260200160002060009054906101000a900460ff16905090565b6117d361137c565b611812576040517f08c379a00000000000000000000000000000000000000000000000000000000081526004016118099061262f565b60405180910390fd5b61181b816118b6565b50565b61182661137c565b611865576040517f08c379a000000000000000000000000000000000000000000000000000000000815260040161185c9061262f565b60405180910390fd5b8073ffffffffffffffffffffffffffffffffffffffff166108fc611887610897565b9081150290604051600060405180830381858888f193505050501580156118b2573d6000803e3d6000fd5b5050565b600073ffffffffffffffffffffffffffffffffffffffff168173ffffffffffffffffffffffffffffffffffffffff1614156118f057600080fd5b8073ffffffffffffffffffffffffffffffffffffffff1660008054906101000a900473ffffffffffffffffffffffffffffffffffffffff1673ffffffffffffffffffffffffffffffffffffffff167f8be0079c531659141344cd1fd0a4f28419497f9722a3daafe3b4186f6b6457e060405160405180910390a3806000806101000a81548173ffffffffffffffffffffffffffffffffffffffff021916908373ffffffffffffffffffffffffffffffffffffffff16021790555050565b60405180606001604052806060815260200160008152602001600073ffffffffffffffffffffffffffffffffffffffff1681525090565b60405180608001604052806060815260200160008152602001600073ffffffffffffffffffffffffffffffffffffffff168152602001600073ffffffffffffffffffffffffffffffffffffffff1681525090565b828054611a4490612539565b90600052602060002090601f016020900481019282611a665760008555611aad565b82601f10611a7f57805160ff1916838001178555611aad565b82800160010185558215611aad579182015b82811115611aac578251825591602001919060010190611a91565b5b509050611aba9190611abe565b5090565b5b80821115611ad7576000816000905550600101611abf565b5090565b6000604051905090565b600080fd5b600080fd5b600073ffffffffffffffffffffffffffffffffffffffff82169050919050565b6000611b1a82611aef565b9050919050565b611b2a81611b0f565b8114611b3557600080fd5b50565b600081359050611b4781611b21565b92915050565b6000819050919050565b611b6081611b4d565b8114611b6b57600080fd5b50565b600081359050611b7d81611b57565b92915050565b60008060408385031215611b9a57611b99611ae5565b5b6000611ba885828601611b38565b9250506020611bb985828601611b6e565b9150509250929050565b6000611bce82611aef565b9050919050565b611bde81611bc3565b8114611be957600080fd5b50565b600081359050611bfb81611bd5565b92915050565b600060208284031215611c1757611c16611ae5565b5b6000611c2584828501611bec565b91505092915050565b600081519050919050565b600082825260208201905092915050565b6000819050602082019050919050565b600081519050919050565b600082825260208201905092915050565b60005b83811015611c94578082015181840152602081019050611c79565b83811115611ca3576000848401525b50505050565b6000601f19601f8301169050919050565b6000611cc582611c5a565b611ccf8185611c65565b9350611cdf818560208601611c76565b611ce881611ca9565b840191505092915050565b611cfc81611b4d565b82525050565b611d0b81611bc3565b82525050565b60006060830160008301518482036000860152611d2e8282611cba565b9150506020830151611d436020860182611cf3565b506040830151611d566040860182611d02565b508091505092915050565b6000611d6d8383611d11565b905092915050565b6000602082019050919050565b6000611d8d82611c2e565b611d978185611c39565b935083602082028501611da985611c4a565b8060005b85811015611de55784840389528151611dc68582611d61565b9450611dd183611d75565b925060208a01995050600181019050611dad565b50829750879550505050505092915050565b60006020820190508181036000830152611e118184611d82565b905092915050565b611e2281611b4d565b82525050565b6000602082019050611e3d6000830184611e19565b92915050565b600081519050919050565b600082825260208201905092915050565b6000819050602082019050919050565b60006080830160008301518482036000860152611e8c8282611cba565b9150506020830151611ea16020860182611cf3565b506040830151611eb46040860182611d02565b506060830151611ec76060860182611d02565b508091505092915050565b6000611ede8383611e6f565b905092915050565b6000602082019050919050565b6000611efe82611e43565b611f088185611e4e565b935083602082028501611f1a85611e5f565b8060005b85811015611f565784840389528151611f378582611ed2565b9450611f4283611ee6565b925060208a01995050600181019050611f1e565b50829750879550505050505092915050565b60006020820190508181036000830152611f828184611ef3565b905092915050565b600060208284031215611fa057611f9f611ae5565b5b6000611fae84828501611b6e565b91505092915050565b611fc081611bc3565b82525050565b6000602082019050611fdb6000830184611fb7565b92915050565b600081519050919050565b600082825260208201905092915050565b6000819050602082019050919050565b60006120198383611d02565b60208301905092915050565b6000602082019050919050565b600061203d82611fe1565b6120478185611fec565b935061205283611ffd565b8060005b8381101561208357815161206a888261200d565b975061207583612025565b925050600181019050612056565b5085935050505092915050565b600060208201905081810360008301526120aa8184612032565b905092915050565b60008115159050919050565b6120c7816120b2565b82525050565b60006020820190506120e260008301846120be565b92915050565b600080fd5b600080fd5b7f4e487b7100000000000000000000000000000000000000000000000000000000600052604160045260246000fd5b61212a82611ca9565b810181811067ffffffffffffffff82111715612149576121486120f2565b5b80604052505050565b600061215c611adb565b90506121688282612121565b919050565b600067ffffffffffffffff821115612188576121876120f2565b5b61219182611ca9565b9050602081019050919050565b82818337600083830152505050565b60006121c06121bb8461216d565b612152565b9050828152602081018484840111156121dc576121db6120ed565b5b6121e784828561219e565b509392505050565b600082601f830112612204576122036120e8565b5b81356122148482602086016121ad565b91505092915050565b60006020828403121561223357612232611ae5565b5b600082013567ffffffffffffffff81111561225157612250611aea565b5b61225d848285016121ef565b91505092915050565b6000806040838503121561227d5761227c611ae5565b5b600061228b85828601611bec565b925050602061229c85828601611b6e565b9150509250929050565b600082825260208201905092915050565b60006122c282611c5a565b6122cc81856122a6565b93506122dc818560208601611c76565b6122e581611ca9565b840191505092915050565b6000606082019050818103600083015261230a81866122b7565b90506123196020830185611e19565b6123266040830184611fb7565b949350505050565b6000608082019050818103600083015261234881876122b7565b90506123576020830186611e19565b6123646040830185611fb7565b6123716060830184611fb7565b95945050505050565b6000806040838503121561239157612390611ae5565b5b600083013567ffffffffffffffff8111156123af576123ae611aea565b5b6123bb858286016121ef565b92505060206123cc85828601611bec565b9150509250929050565b6000602082840312156123ec576123eb611ae5565b5b60006123fa84828501611b38565b91505092915050565b7f20596f75206e6f742069732061204d616e616765720000000000000000000000600082015250565b60006124396015836122a6565b915061244482612403565b602082019050919050565b600060208201905081810360008301526124688161242c565b9050919050565b7f205573657220686173206e6576657220706c6163656420616e206f7264657200600082015250565b60006124a5601f836122a6565b91506124b08261246f565b602082019050919050565b600060208201905081810360008301526124d481612498565b9050919050565b7f4e487b7100000000000000000000000000000000000000000000000000000000600052603260045260246000fd5b7f4e487b7100000000000000000000000000000000000000000000000000000000600052602260045260246000fd5b6000600282049050600182168061255157607f821691505b602082108114156125655761256461250a565b5b50919050565b7f4e487b7100000000000000000000000000000000000000000000000000000000600052601160045260246000fd5b60006125a582611b4d565b91507fffffffffffffffffffffffffffffffffffffffffffffffffffffffffffffffff8214156125d8576125d761256b565b5b600182019050919050565b7f53656e646572206e6f7420617574686f72697a65642e00000000000000000000600082015250565b60006126196016836122a6565b9150612624826125e3565b602082019050919050565b600060208201905081810360008301526126488161260c565b9050919050565b7f546869732077616c6c65742061646472657373206973206e6f7420612073757060008201527f706c696572000000000000000000000000000000000000000000000000000000602082015250565b60006126ab6025836122a6565b91506126b68261264f565b604082019050919050565b600060208201905081810360008301526126da8161269e565b9050919050565b600060408201905081810360008301526126fb81856122b7565b905061270a6020830184611e19565b939250505056fea2646970667358221220f710580b7f49e9a7a4e88a9aa3123d32b18caf6face04a92fe7041c6775470ba64736f6c634300080b0033",
  "immutableReferences": {},
  "source": "// SPDX-License-Identifier: MIT\r\npragma solidity >=0.4.22 <0.9.0;\r\nimport \"./Ownable.sol\";\r\n\r\ncontract ManagerOgani is Ownable {\r\n    uint256 private orderId;\r\n    mapping (address => UserPayment[]) public userOrders;\r\n    mapping (address => PaymentToSupplier[]) public paymentsToSupplier;\r\n    mapping (address => bool) private isCustomer;\r\n    mapping (address => bool) private isSupplier;\r\n    event refundsForUser(\r\n        address indexed _walletUser,\r\n        uint indexed _amount\r\n    );\r\n    event transferSupplierSuccess( \r\n        string idProduct,\r\n        uint amount\r\n    );\r\n  \r\n    receive() external payable {}\r\n    fallback() external payable {}\r\n   \r\n    struct PaymentToSupplier {\r\n        string idProduct;\r\n        uint256 totalPayment;\r\n        address supplier;\r\n        address currentAdmin;\r\n    } \r\n    struct UserPayment{\r\n        string idOrder;\r\n        uint256 totalPayment;\r\n        address userAddress;\r\n    }\r\n    function getBalance() public view returns(uint) {\r\n        return address(this).balance;\r\n    }\r\n    function userPaymentOrder(string memory _idOrder) external payable {\r\n        UserPayment memory newUserOrder = UserPayment({\r\n            idOrder: _idOrder,\r\n            totalPayment: msg.value,\r\n            userAddress: msg.sender\r\n        });\r\n        if(!isCustomer[msg.sender]){\r\n            isCustomer[msg.sender] = true;\r\n            userOrders[msg.sender].push(newUserOrder);\r\n        }else{\r\n            userOrders[msg.sender].push(newUserOrder);\r\n        }\r\n    }\r\n    function getAllOrderUser(address _addressUser) public view returns (UserPayment[] memory){\r\n        require(isCustomer[_addressUser],\" User has never placed an order\");\r\n        UserPayment[]  memory orders  = new UserPayment[](userOrders[_addressUser].length);\r\n        for (uint i = 0; i < userOrders[_addressUser].length; i++) {\r\n            UserPayment memory order = userOrders[_addressUser][i];\r\n            orders[i]= order;\r\n        }\r\n        return orders;\r\n    }\r\n    function transferToSupplier(string memory _idProduct, address _supplier) external payable onlyManagers {\r\n        paymentsToSupplier[_supplier].push(PaymentToSupplier(_idProduct,msg.value,_supplier,msg.sender));\r\n        isSupplier[_supplier] = true;\r\n        payable(_supplier).transfer(msg.value);\r\n        emit transferSupplierSuccess(_idProduct, msg.value);\r\n    }\r\n    function getPaymentsToSupplier(address _addressSupplier) external view returns (PaymentToSupplier[] memory) {\r\n        require(isSupplier[_addressSupplier], \"This wallet address is not a supplier\");\r\n        uint lenghtPayment = paymentsToSupplier[_addressSupplier].length;\r\n        PaymentToSupplier[] memory payments = new PaymentToSupplier[](lenghtPayment);\r\n        for( uint i = 0; i < lenghtPayment; i++) {\r\n            PaymentToSupplier memory payment  = paymentsToSupplier[_addressSupplier][i];\r\n            payments[i] = payment;\r\n        }\r\n        return payments;\r\n    }\r\n\r\n    function withdrawAll(address payable _to) external onlyOwner {\r\n      _to.transfer(getBalance());\r\n    }\r\n    function withdrawAmount(address payable _to, uint _amount) external onlyOwner {\r\n       _to.transfer(_amount);\r\n    }\r\n    function refundsOrderUser(address payable _walletuser,uint _amount) external payable onlyManagers {\r\n        _walletuser.transfer(_amount);\r\n        emit refundsForUser(_walletuser, _amount);\r\n    } \r\n}",
  "sourcePath": "C:\\Users\\nguye\\OneDrive\\Desktop\\DACS5\\Ecom-Block-V2\\contracts\\ManagerOgani.sol",
  "compiler": {
    "name": "solc",
    "version": "0.8.11+commit.d7f03943.Emscripten.clang"
  },
  "schemaVersion": "3.4.4",
  "updatedAt": "2022-04-27T17:01:01.431Z",
  "devdoc": {
    "kind": "dev",
    "methods": {
      "isManager()": {
        "returns": {
          "_0": "true if `msg.sender` is the owner of the contract."
        }
      },
      "owner()": {
        "returns": {
          "_0": "the address of the owner."
        }
      },
      "renounceOwnership()": {
        "details": "Allows the current owner to relinquish control of the contract."
      },
      "transferOwnership(address)": {
        "details": "Allows the current owner to transfer control of the contract to a newOwner.",
        "params": {
          "newOwner": "The address to transfer ownership to."
        }
      }
    },
    "version": 1
  },
  "userdoc": {
    "kind": "user",
    "methods": {
      "renounceOwnership()": {
        "notice": "Renouncing to ownership will leave the contract without an owner. It will not be possible to call the functions with the `onlyOwner` modifier anymore."
      }
    },
    "version": 1
  }
}