{
  "contractName": "ManagerOgani",
  "abi": [
    {
      "anonymous": false,
      "inputs": [
        {
          "indexed": true,
          "internalType": "address",
          "name": "previousOwner",
          "type": "address"
        },
        {
          "indexed": true,
          "internalType": "address",
          "name": "newOwner",
          "type": "address"
        }
      ],
      "name": "OwnershipTransferred",
      "type": "event"
    },
    {
      "stateMutability": "payable",
      "type": "fallback",
      "payable": true
    },
    {
      "inputs": [
        {
          "internalType": "uint256",
          "name": "",
          "type": "uint256"
        }
      ],
      "name": "AddressUsers",
      "outputs": [
        {
          "internalType": "address",
          "name": "",
          "type": "address"
        }
      ],
      "stateMutability": "view",
      "type": "function",
      "constant": true
    },
    {
      "inputs": [
        {
          "internalType": "address",
          "name": "",
          "type": "address"
        }
      ],
      "name": "IndexUsers",
      "outputs": [
        {
          "internalType": "uint256",
          "name": "",
          "type": "uint256"
        }
      ],
      "stateMutability": "view",
      "type": "function",
      "constant": true
    },
    {
      "inputs": [
        {
          "internalType": "address",
          "name": "newManager",
          "type": "address"
        }
      ],
      "name": "addManager",
      "outputs": [],
      "stateMutability": "nonpayable",
      "type": "function"
    },
    {
      "inputs": [],
      "name": "getAllManagement",
      "outputs": [
        {
          "internalType": "address[]",
          "name": "",
          "type": "address[]"
        }
      ],
      "stateMutability": "view",
      "type": "function",
      "constant": true
    },
    {
      "inputs": [
        {
          "internalType": "address",
          "name": "",
          "type": "address"
        }
      ],
      "name": "includeUser",
      "outputs": [
        {
          "internalType": "bool",
          "name": "",
          "type": "bool"
        }
      ],
      "stateMutability": "view",
      "type": "function",
      "constant": true
    },
    {
      "inputs": [],
      "name": "isOwner",
      "outputs": [
        {
          "internalType": "bool",
          "name": "",
          "type": "bool"
        }
      ],
      "stateMutability": "view",
      "type": "function",
      "constant": true
    },
    {
      "inputs": [
        {
          "internalType": "uint256",
          "name": "",
          "type": "uint256"
        }
      ],
      "name": "listPayments",
      "outputs": [
        {
          "internalType": "string",
          "name": "idProduct",
          "type": "string"
        },
        {
          "internalType": "uint256",
          "name": "totalPayment",
          "type": "uint256"
        },
        {
          "internalType": "address",
          "name": "supplier",
          "type": "address"
        },
        {
          "internalType": "address",
          "name": "currentAdmin",
          "type": "address"
        }
      ],
      "stateMutability": "view",
      "type": "function",
      "constant": true
    },
    {
      "inputs": [
        {
          "internalType": "uint256",
          "name": "",
          "type": "uint256"
        }
      ],
      "name": "listUserOrder",
      "outputs": [
        {
          "internalType": "string",
          "name": "idOrder",
          "type": "string"
        },
        {
          "internalType": "uint256",
          "name": "totalPayment",
          "type": "uint256"
        },
        {
          "internalType": "address",
          "name": "userAddress",
          "type": "address"
        }
      ],
      "stateMutability": "view",
      "type": "function",
      "constant": true
    },
    {
      "inputs": [
        {
          "internalType": "uint256",
          "name": "",
          "type": "uint256"
        }
      ],
      "name": "managementAddress",
      "outputs": [
        {
          "internalType": "address",
          "name": "",
          "type": "address"
        }
      ],
      "stateMutability": "view",
      "type": "function",
      "constant": true
    },
    {
      "inputs": [
        {
          "internalType": "address",
          "name": "",
          "type": "address"
        }
      ],
      "name": "managementList",
      "outputs": [
        {
          "internalType": "bool",
          "name": "",
          "type": "bool"
        }
      ],
      "stateMutability": "view",
      "type": "function",
      "constant": true
    },
    {
      "inputs": [],
      "name": "numberOfManager",
      "outputs": [
        {
          "internalType": "uint256",
          "name": "",
          "type": "uint256"
        }
      ],
      "stateMutability": "view",
      "type": "function",
      "constant": true
    },
    {
      "inputs": [],
      "name": "orderNumber",
      "outputs": [
        {
          "internalType": "uint256",
          "name": "",
          "type": "uint256"
        }
      ],
      "stateMutability": "view",
      "type": "function",
      "constant": true
    },
    {
      "inputs": [],
      "name": "owner",
      "outputs": [
        {
          "internalType": "address",
          "name": "",
          "type": "address"
        }
      ],
      "stateMutability": "view",
      "type": "function",
      "constant": true
    },
    {
      "inputs": [],
      "name": "renounceOwnership",
      "outputs": [],
      "stateMutability": "nonpayable",
      "type": "function"
    },
    {
      "inputs": [],
      "name": "transactionCount",
      "outputs": [
        {
          "internalType": "uint256",
          "name": "",
          "type": "uint256"
        }
      ],
      "stateMutability": "view",
      "type": "function",
      "constant": true
    },
    {
      "inputs": [
        {
          "internalType": "address",
          "name": "newOwner",
          "type": "address"
        }
      ],
      "name": "transferOwnership",
      "outputs": [],
      "stateMutability": "nonpayable",
      "type": "function"
    },
    {
      "stateMutability": "payable",
      "type": "receive",
      "payable": true
    },
    {
      "inputs": [],
      "name": "getBalance",
      "outputs": [
        {
          "internalType": "uint256",
          "name": "",
          "type": "uint256"
        }
      ],
      "stateMutability": "view",
      "type": "function",
      "constant": true
    },
    {
      "inputs": [
        {
          "internalType": "string",
          "name": "_idOrder",
          "type": "string"
        }
      ],
      "name": "userPaymentOrder",
      "outputs": [],
      "stateMutability": "payable",
      "type": "function",
      "payable": true
    },
    {
      "inputs": [],
      "name": "getAllPaymentOrder",
      "outputs": [
        {
          "components": [
            {
              "internalType": "string",
              "name": "idOrder",
              "type": "string"
            },
            {
              "internalType": "uint256",
              "name": "totalPayment",
              "type": "uint256"
            },
            {
              "internalType": "address",
              "name": "userAddress",
              "type": "address"
            }
          ],
          "internalType": "struct ManagerOgani.UserPayment[]",
          "name": "",
          "type": "tuple[]"
        }
      ],
      "stateMutability": "view",
      "type": "function",
      "constant": true
    },
    {
      "inputs": [
        {
          "internalType": "string",
          "name": "_idProduct",
          "type": "string"
        },
        {
          "internalType": "address",
          "name": "_supplier",
          "type": "address"
        }
      ],
      "name": "transferToSupplier",
      "outputs": [],
      "stateMutability": "payable",
      "type": "function",
      "payable": true
    },
    {
      "inputs": [
        {
          "internalType": "uint256",
          "name": "index",
          "type": "uint256"
        }
      ],
      "name": "getTransaction",
      "outputs": [
        {
          "components": [
            {
              "internalType": "string",
              "name": "idProduct",
              "type": "string"
            },
            {
              "internalType": "uint256",
              "name": "totalPayment",
              "type": "uint256"
            },
            {
              "internalType": "address",
              "name": "supplier",
              "type": "address"
            },
            {
              "internalType": "address",
              "name": "currentAdmin",
              "type": "address"
            }
          ],
          "internalType": "struct ManagerOgani.PaymentObject",
          "name": "",
          "type": "tuple"
        }
      ],
      "stateMutability": "view",
      "type": "function",
      "constant": true
    },
    {
      "inputs": [],
      "name": "getAllTransaction",
      "outputs": [
        {
          "components": [
            {
              "internalType": "string",
              "name": "idProduct",
              "type": "string"
            },
            {
              "internalType": "uint256",
              "name": "totalPayment",
              "type": "uint256"
            },
            {
              "internalType": "address",
              "name": "supplier",
              "type": "address"
            },
            {
              "internalType": "address",
              "name": "currentAdmin",
              "type": "address"
            }
          ],
          "internalType": "struct ManagerOgani.PaymentObject[]",
          "name": "",
          "type": "tuple[]"
        }
      ],
      "stateMutability": "view",
      "type": "function",
      "constant": true
    },
    {
      "inputs": [
        {
          "internalType": "address",
          "name": "_to",
          "type": "address"
        }
      ],
      "name": "withdraw",
      "outputs": [],
      "stateMutability": "payable",
      "type": "function",
      "payable": true
    },
    {
      "inputs": [
        {
          "internalType": "address payable",
          "name": "_to",
          "type": "address"
        }
      ],
      "name": "withdrawMoneyTo",
      "outputs": [],
      "stateMutability": "nonpayable",
      "type": "function"
    },
    {
      "inputs": [
        {
          "internalType": "address payable",
          "name": "_walletuser",
          "type": "address"
        },
        {
          "internalType": "uint256",
          "name": "_amount",
          "type": "uint256"
        }
      ],
      "name": "refundsOrderUser",
      "outputs": [],
      "stateMutability": "payable",
      "type": "function",
      "payable": true
    }
  ],
  "bytecode": "0x60806040523480156200001157600080fd5b50336000806101000a81548173ffffffffffffffffffffffffffffffffffffffff021916908373ffffffffffffffffffffffffffffffffffffffff1602179055506200006333620000e460201b60201c565b60008054906101000a900473ffffffffffffffffffffffffffffffffffffffff1673ffffffffffffffffffffffffffffffffffffffff16600073ffffffffffffffffffffffffffffffffffffffff167f8be0079c531659141344cd1fd0a4f28419497f9722a3daafe3b4186f6b6457e060405160405180910390a362000362565b620000f46200020160201b60201c565b62000136576040517f08c379a00000000000000000000000000000000000000000000000000000000081526004016200012d90620002b9565b60405180910390fd5b6000600360008154809291906200014d9062000314565b919050559050816001600083815260200190815260200160002060006101000a81548173ffffffffffffffffffffffffffffffffffffffff021916908373ffffffffffffffffffffffffffffffffffffffff1602179055506001600260008473ffffffffffffffffffffffffffffffffffffffff1673ffffffffffffffffffffffffffffffffffffffff16815260200190815260200160002060006101000a81548160ff0219169083151502179055505050565b60008060009054906101000a900473ffffffffffffffffffffffffffffffffffffffff1673ffffffffffffffffffffffffffffffffffffffff163373ffffffffffffffffffffffffffffffffffffffff1614905090565b600082825260208201905092915050565b7f53656e646572206e6f7420617574686f72697a65642e00000000000000000000600082015250565b6000620002a160168362000258565b9150620002ae8262000269565b602082019050919050565b60006020820190508181036000830152620002d48162000292565b9050919050565b7f4e487b7100000000000000000000000000000000000000000000000000000000600052601160045260246000fd5b6000819050919050565b600062000321826200030a565b91507fffffffffffffffffffffffffffffffffffffffffffffffffffffffffffffffff821415620003575762000356620002db565b5b600182019050919050565b61263980620003726000396000f3fe6080604052600436106101695760003560e01c80638d3c8ab6116100d1578063add6415d1161008a578063b77bf60011610064578063b77bf60014610549578063bb015a4014610574578063f2fde38b14610590578063fd73ca1e146105b957610170565b8063add6415d146104b6578063b04dd81b146104e1578063b74afc8e1461050c57610170565b80638d3c8ab6146103675780638da5cb5b146103a75780638f32d59b146103d257806399013e94146103fd5780639a91f3751461043c5780639f0673fe1461047957610170565b806333ea3dc81161012357806333ea3dc8146102735780634efc7866146102b057806351cff8d9146102db57806365077a98146102f7578063715018a614610313578063894a89ed1461032a57610170565b8062215bc21461017257806306e2bbe31461018e5780630ff8d8a5146101cb5780631020c6ab146101f457806312065fe01461021f5780632d06177a1461024a57610170565b3661017057005b005b61018c60048036038101906101879190611b5e565b6105e4565b005b34801561019a57600080fd5b506101b560048036038101906101b09190611b9e565b61062f565b6040516101c29190611bec565b60405180910390f35b3480156101d757600080fd5b506101f260048036038101906101ed9190611c07565b610662565b005b34801561020057600080fd5b506102096106b3565b6040516102169190611cf2565b60405180910390f35b34801561022b57600080fd5b506102346107b3565b6040516102419190611d23565b60405180910390f35b34801561025657600080fd5b50610271600480360381019061026c9190611d6a565b6107bb565b005b34801561027f57600080fd5b5061029a60048036038101906102959190611b9e565b6108cb565b6040516102a79190611ea2565b60405180910390f35b3480156102bc57600080fd5b506102c5610afb565b6040516102d29190611d23565b60405180910390f35b6102f560048036038101906102f09190611d6a565b610b01565b005b610311600480360381019061030c9190611ff9565b610b4b565b005b34801561031f57600080fd5b50610328610e87565b005b34801561033657600080fd5b50610351600480360381019061034c9190611d6a565b610f8c565b60405161035e919061205d565b60405180910390f35b34801561037357600080fd5b5061038e60048036038101906103899190611b9e565b610fac565b60405161039e94939291906120c2565b60405180910390f35b3480156103b357600080fd5b506103bc6110a4565b6040516103c99190611bec565b60405180910390f35b3480156103de57600080fd5b506103e76110cd565b6040516103f4919061205d565b60405180910390f35b34801561040957600080fd5b50610424600480360381019061041f9190611b9e565b611124565b6040516104339392919061210e565b60405180910390f35b34801561044857600080fd5b50610463600480360381019061045e9190611b9e565b6111f6565b6040516104709190611bec565b60405180910390f35b34801561048557600080fd5b506104a0600480360381019061049b9190611d6a565b611229565b6040516104ad9190611d23565b60405180910390f35b3480156104c257600080fd5b506104cb611241565b6040516104d89190612271565b60405180910390f35b3480156104ed57600080fd5b506104f661144f565b6040516105039190611d23565b60405180910390f35b34801561051857600080fd5b50610533600480360381019061052e9190611d6a565b611455565b604051610540919061205d565b60405180910390f35b34801561055557600080fd5b5061055e611475565b60405161056b9190611d23565b60405180910390f35b61058e60048036038101906105899190612293565b61147b565b005b34801561059c57600080fd5b506105b760048036038101906105b29190611d6a565b611686565b005b3480156105c557600080fd5b506105ce6116d9565b6040516105db9190612401565b60405180910390f35b8173ffffffffffffffffffffffffffffffffffffffff166108fc829081150290604051600060405180830381858888f1935050505015801561062a573d6000803e3d6000fd5b505050565b60096020528060005260406000206000915054906101000a900473ffffffffffffffffffffffffffffffffffffffff1681565b8073ffffffffffffffffffffffffffffffffffffffff166108fc6106846107b3565b9081150290604051600060405180830381858888f193505050501580156106af573d6000803e3d6000fd5b5050565b6060600060035467ffffffffffffffff8111156106d3576106d2611ece565b5b6040519080825280602002602001820160405280156107015781602001602082028036833780820191505090505b50905060005b6003548110156107ab5760006001600083815260200190815260200160002060009054906101000a900473ffffffffffffffffffffffffffffffffffffffff1690508083838151811061075d5761075c612423565b5b602002602001019073ffffffffffffffffffffffffffffffffffffffff16908173ffffffffffffffffffffffffffffffffffffffff16815250505080806107a390612481565b915050610707565b508091505090565b600047905090565b6107c36110cd565b610802576040517f08c379a00000000000000000000000000000000000000000000000000000000081526004016107f990612516565b60405180910390fd5b60006003600081548092919061081790612481565b919050559050816001600083815260200190815260200160002060006101000a81548173ffffffffffffffffffffffffffffffffffffffff021916908373ffffffffffffffffffffffffffffffffffffffff1602179055506001600260008473ffffffffffffffffffffffffffffffffffffffff1673ffffffffffffffffffffffffffffffffffffffff16815260200190815260200160002060006101000a81548160ff0219169083151502179055505050565b6108d3611988565b600060045467ffffffffffffffff8111156108f1576108f0611ece565b5b60405190808252806020026020018201604052801561092a57816020015b610917611988565b81526020019060019003908161090f5790505b50905060005b600454811015610ad75760006006600083815260200190815260200160002090508060405180608001604052908160008201805461096d90612565565b80601f016020809104026020016040519081016040528092919081815260200182805461099990612565565b80156109e65780601f106109bb576101008083540402835291602001916109e6565b820191906000526020600020905b8154815290600101906020018083116109c957829003601f168201915b50505050508152602001600182015481526020016002820160009054906101000a900473ffffffffffffffffffffffffffffffffffffffff1673ffffffffffffffffffffffffffffffffffffffff1673ffffffffffffffffffffffffffffffffffffffff1681526020016003820160009054906101000a900473ffffffffffffffffffffffffffffffffffffffff1673ffffffffffffffffffffffffffffffffffffffff1673ffffffffffffffffffffffffffffffffffffffff1681525050838381518110610ab857610ab7612423565b5b6020026020010181905250508080610acf90612481565b915050610930565b50808381518110610aeb57610aea612423565b5b6020026020010151915050919050565b60035481565b8073ffffffffffffffffffffffffffffffffffffffff166108fc349081150290604051600060405180830381858888f19350505050158015610b47573d6000803e3d6000fd5b5050565b600060405180606001604052808381526020013481526020013373ffffffffffffffffffffffffffffffffffffffff168152509050600a60003373ffffffffffffffffffffffffffffffffffffffff1673ffffffffffffffffffffffffffffffffffffffff16815260200190815260200160002060009054906101000a900460ff16610d6557600060056000815480929190610be690612481565b9190505590506001600a60003373ffffffffffffffffffffffffffffffffffffffff1673ffffffffffffffffffffffffffffffffffffffff16815260200190815260200160002060006101000a81548160ff02191690831515021790555080600860003373ffffffffffffffffffffffffffffffffffffffff1673ffffffffffffffffffffffffffffffffffffffff16815260200190815260200160002081905550336009600083815260200190815260200160002060006101000a81548173ffffffffffffffffffffffffffffffffffffffff021916908373ffffffffffffffffffffffffffffffffffffffff16021790555081600760008381526020019081526020016000206000820151816000019080519060200190610d0a9291906119dc565b506020820151816001015560408201518160020160006101000a81548173ffffffffffffffffffffffffffffffffffffffff021916908373ffffffffffffffffffffffffffffffffffffffff16021790555090505050610e83565b600080600090505b600554811015610dfb5760006009600083815260200190815260200160002060009054906101000a900473ffffffffffffffffffffffffffffffffffffffff1690503373ffffffffffffffffffffffffffffffffffffffff168173ffffffffffffffffffffffffffffffffffffffff161415610de7578192505b508080610df390612481565b915050610d6d565b5081600760008381526020019081526020016000206000820151816000019080519060200190610e2c9291906119dc565b506020820151816001015560408201518160020160006101000a81548173ffffffffffffffffffffffffffffffffffffffff021916908373ffffffffffffffffffffffffffffffffffffffff160217905550905050505b5050565b610e8f6110cd565b610ece576040517f08c379a0000000000000000000000000000000000000000000000000000000008152600401610ec590612516565b60405180910390fd5b600073ffffffffffffffffffffffffffffffffffffffff1660008054906101000a900473ffffffffffffffffffffffffffffffffffffffff1673ffffffffffffffffffffffffffffffffffffffff167f8be0079c531659141344cd1fd0a4f28419497f9722a3daafe3b4186f6b6457e060405160405180910390a360008060006101000a81548173ffffffffffffffffffffffffffffffffffffffff021916908373ffffffffffffffffffffffffffffffffffffffff160217905550565b60026020528060005260406000206000915054906101000a900460ff1681565b6006602052806000526040600020600091509050806000018054610fcf90612565565b80601f0160208091040260200160405190810160405280929190818152602001828054610ffb90612565565b80156110485780601f1061101d57610100808354040283529160200191611048565b820191906000526020600020905b81548152906001019060200180831161102b57829003601f168201915b5050505050908060010154908060020160009054906101000a900473ffffffffffffffffffffffffffffffffffffffff16908060030160009054906101000a900473ffffffffffffffffffffffffffffffffffffffff16905084565b60008060009054906101000a900473ffffffffffffffffffffffffffffffffffffffff16905090565b60008060009054906101000a900473ffffffffffffffffffffffffffffffffffffffff1673ffffffffffffffffffffffffffffffffffffffff163373ffffffffffffffffffffffffffffffffffffffff1614905090565b600760205280600052604060002060009150905080600001805461114790612565565b80601f016020809104026020016040519081016040528092919081815260200182805461117390612565565b80156111c05780601f10611195576101008083540402835291602001916111c0565b820191906000526020600020905b8154815290600101906020018083116111a357829003601f168201915b5050505050908060010154908060020160009054906101000a900473ffffffffffffffffffffffffffffffffffffffff16905083565b60016020528060005260406000206000915054906101000a900473ffffffffffffffffffffffffffffffffffffffff1681565b60086020528060005260406000206000915090505481565b6060600060045467ffffffffffffffff81111561126157611260611ece565b5b60405190808252806020026020018201604052801561129a57816020015b611287611988565b81526020019060019003908161127f5790505b50905060005b600454811015611447576000600660008381526020019081526020016000209050806040518060800160405290816000820180546112dd90612565565b80601f016020809104026020016040519081016040528092919081815260200182805461130990612565565b80156113565780601f1061132b57610100808354040283529160200191611356565b820191906000526020600020905b81548152906001019060200180831161133957829003601f168201915b50505050508152602001600182015481526020016002820160009054906101000a900473ffffffffffffffffffffffffffffffffffffffff1673ffffffffffffffffffffffffffffffffffffffff1673ffffffffffffffffffffffffffffffffffffffff1681526020016003820160009054906101000a900473ffffffffffffffffffffffffffffffffffffffff1673ffffffffffffffffffffffffffffffffffffffff1673ffffffffffffffffffffffffffffffffffffffff168152505083838151811061142857611427612423565b5b602002602001018190525050808061143f90612481565b9150506112a0565b508091505090565b60055481565b600a6020528060005260406000206000915054906101000a900460ff1681565b60045481565b33600260008273ffffffffffffffffffffffffffffffffffffffff1673ffffffffffffffffffffffffffffffffffffffff16815260200190815260200160002060009054906101000a900460ff16611508576040517f08c379a00000000000000000000000000000000000000000000000000000000081526004016114ff906125e3565b60405180910390fd5b60405180608001604052808481526020013481526020018373ffffffffffffffffffffffffffffffffffffffff1681526020013373ffffffffffffffffffffffffffffffffffffffff1681525060066000600454815260200190815260200160002060008201518160000190805190602001906115869291906119dc565b506020820151816001015560408201518160020160006101000a81548173ffffffffffffffffffffffffffffffffffffffff021916908373ffffffffffffffffffffffffffffffffffffffff16021790555060608201518160030160006101000a81548173ffffffffffffffffffffffffffffffffffffffff021916908373ffffffffffffffffffffffffffffffffffffffff1602179055509050506004600081548092919061163590612481565b91905055508173ffffffffffffffffffffffffffffffffffffffff166108fc349081150290604051600060405180830381858888f19350505050158015611680573d6000803e3d6000fd5b50505050565b61168e6110cd565b6116cd576040517f08c379a00000000000000000000000000000000000000000000000000000000081526004016116c490612516565b60405180910390fd5b6116d681611891565b50565b6060600060055467ffffffffffffffff8111156116f9576116f8611ece565b5b60405190808252806020026020018201604052801561173257816020015b61171f611a62565b8152602001906001900390816117175790505b50905060005b6005548110156118895760006007600083815260200190815260200160002090508060405180606001604052908160008201805461177590612565565b80601f01602080910402602001604051908101604052809291908181526020018280546117a190612565565b80156117ee5780601f106117c3576101008083540402835291602001916117ee565b820191906000526020600020905b8154815290600101906020018083116117d157829003601f168201915b50505050508152602001600182015481526020016002820160009054906101000a900473ffffffffffffffffffffffffffffffffffffffff1673ffffffffffffffffffffffffffffffffffffffff1673ffffffffffffffffffffffffffffffffffffffff168152505083838151811061186a57611869612423565b5b602002602001018190525050808061188190612481565b915050611738565b508091505090565b600073ffffffffffffffffffffffffffffffffffffffff168173ffffffffffffffffffffffffffffffffffffffff1614156118cb57600080fd5b8073ffffffffffffffffffffffffffffffffffffffff1660008054906101000a900473ffffffffffffffffffffffffffffffffffffffff1673ffffffffffffffffffffffffffffffffffffffff167f8be0079c531659141344cd1fd0a4f28419497f9722a3daafe3b4186f6b6457e060405160405180910390a3806000806101000a81548173ffffffffffffffffffffffffffffffffffffffff021916908373ffffffffffffffffffffffffffffffffffffffff16021790555050565b60405180608001604052806060815260200160008152602001600073ffffffffffffffffffffffffffffffffffffffff168152602001600073ffffffffffffffffffffffffffffffffffffffff1681525090565b8280546119e890612565565b90600052602060002090601f016020900481019282611a0a5760008555611a51565b82601f10611a2357805160ff1916838001178555611a51565b82800160010185558215611a51579182015b82811115611a50578251825591602001919060010190611a35565b5b509050611a5e9190611a99565b5090565b60405180606001604052806060815260200160008152602001600073ffffffffffffffffffffffffffffffffffffffff1681525090565b5b80821115611ab2576000816000905550600101611a9a565b5090565b6000604051905090565b600080fd5b600080fd5b600073ffffffffffffffffffffffffffffffffffffffff82169050919050565b6000611af582611aca565b9050919050565b611b0581611aea565b8114611b1057600080fd5b50565b600081359050611b2281611afc565b92915050565b6000819050919050565b611b3b81611b28565b8114611b4657600080fd5b50565b600081359050611b5881611b32565b92915050565b60008060408385031215611b7557611b74611ac0565b5b6000611b8385828601611b13565b9250506020611b9485828601611b49565b9150509250929050565b600060208284031215611bb457611bb3611ac0565b5b6000611bc284828501611b49565b91505092915050565b6000611bd682611aca565b9050919050565b611be681611bcb565b82525050565b6000602082019050611c016000830184611bdd565b92915050565b600060208284031215611c1d57611c1c611ac0565b5b6000611c2b84828501611b13565b91505092915050565b600081519050919050565b600082825260208201905092915050565b6000819050602082019050919050565b611c6981611bcb565b82525050565b6000611c7b8383611c60565b60208301905092915050565b6000602082019050919050565b6000611c9f82611c34565b611ca98185611c3f565b9350611cb483611c50565b8060005b83811015611ce5578151611ccc8882611c6f565b9750611cd783611c87565b925050600181019050611cb8565b5085935050505092915050565b60006020820190508181036000830152611d0c8184611c94565b905092915050565b611d1d81611b28565b82525050565b6000602082019050611d386000830184611d14565b92915050565b611d4781611bcb565b8114611d5257600080fd5b50565b600081359050611d6481611d3e565b92915050565b600060208284031215611d8057611d7f611ac0565b5b6000611d8e84828501611d55565b91505092915050565b600081519050919050565b600082825260208201905092915050565b60005b83811015611dd1578082015181840152602081019050611db6565b83811115611de0576000848401525b50505050565b6000601f19601f8301169050919050565b6000611e0282611d97565b611e0c8185611da2565b9350611e1c818560208601611db3565b611e2581611de6565b840191505092915050565b611e3981611b28565b82525050565b60006080830160008301518482036000860152611e5c8282611df7565b9150506020830151611e716020860182611e30565b506040830151611e846040860182611c60565b506060830151611e976060860182611c60565b508091505092915050565b60006020820190508181036000830152611ebc8184611e3f565b905092915050565b600080fd5b600080fd5b7f4e487b7100000000000000000000000000000000000000000000000000000000600052604160045260246000fd5b611f0682611de6565b810181811067ffffffffffffffff82111715611f2557611f24611ece565b5b80604052505050565b6000611f38611ab6565b9050611f448282611efd565b919050565b600067ffffffffffffffff821115611f6457611f63611ece565b5b611f6d82611de6565b9050602081019050919050565b82818337600083830152505050565b6000611f9c611f9784611f49565b611f2e565b905082815260208101848484011115611fb857611fb7611ec9565b5b611fc3848285611f7a565b509392505050565b600082601f830112611fe057611fdf611ec4565b5b8135611ff0848260208601611f89565b91505092915050565b60006020828403121561200f5761200e611ac0565b5b600082013567ffffffffffffffff81111561202d5761202c611ac5565b5b61203984828501611fcb565b91505092915050565b60008115159050919050565b61205781612042565b82525050565b6000602082019050612072600083018461204e565b92915050565b600082825260208201905092915050565b600061209482611d97565b61209e8185612078565b93506120ae818560208601611db3565b6120b781611de6565b840191505092915050565b600060808201905081810360008301526120dc8187612089565b90506120eb6020830186611d14565b6120f86040830185611bdd565b6121056060830184611bdd565b95945050505050565b600060608201905081810360008301526121288186612089565b90506121376020830185611d14565b6121446040830184611bdd565b949350505050565b600081519050919050565b600082825260208201905092915050565b6000819050602082019050919050565b600060808301600083015184820360008601526121958282611df7565b91505060208301516121aa6020860182611e30565b5060408301516121bd6040860182611c60565b5060608301516121d06060860182611c60565b508091505092915050565b60006121e78383612178565b905092915050565b6000602082019050919050565b60006122078261214c565b6122118185612157565b93508360208202850161222385612168565b8060005b8581101561225f578484038952815161224085826121db565b945061224b836121ef565b925060208a01995050600181019050612227565b50829750879550505050505092915050565b6000602082019050818103600083015261228b81846121fc565b905092915050565b600080604083850312156122aa576122a9611ac0565b5b600083013567ffffffffffffffff8111156122c8576122c7611ac5565b5b6122d485828601611fcb565b92505060206122e585828601611d55565b9150509250929050565b600081519050919050565b600082825260208201905092915050565b6000819050602082019050919050565b600060608301600083015184820360008601526123388282611df7565b915050602083015161234d6020860182611e30565b5060408301516123606040860182611c60565b508091505092915050565b6000612377838361231b565b905092915050565b6000602082019050919050565b6000612397826122ef565b6123a181856122fa565b9350836020820285016123b38561230b565b8060005b858110156123ef57848403895281516123d0858261236b565b94506123db8361237f565b925060208a019950506001810190506123b7565b50829750879550505050505092915050565b6000602082019050818103600083015261241b818461238c565b905092915050565b7f4e487b7100000000000000000000000000000000000000000000000000000000600052603260045260246000fd5b7f4e487b7100000000000000000000000000000000000000000000000000000000600052601160045260246000fd5b600061248c82611b28565b91507fffffffffffffffffffffffffffffffffffffffffffffffffffffffffffffffff8214156124bf576124be612452565b5b600182019050919050565b7f53656e646572206e6f7420617574686f72697a65642e00000000000000000000600082015250565b6000612500601683612078565b915061250b826124ca565b602082019050919050565b6000602082019050818103600083015261252f816124f3565b9050919050565b7f4e487b7100000000000000000000000000000000000000000000000000000000600052602260045260246000fd5b6000600282049050600182168061257d57607f821691505b6020821081141561259157612590612536565b5b50919050565b7f20596f75206e6f742069732061204d616e616765720000000000000000000000600082015250565b60006125cd601583612078565b91506125d882612597565b602082019050919050565b600060208201905081810360008301526125fc816125c0565b905091905056fea26469706673582212209e51393760af57dc04fd8e6eb7249d9b7811e5001e375052ab48c291d860e8ad64736f6c634300080b0033",
  "immutableReferences": {},
  "source": "// SPDX-License-Identifier: MIT\r\npragma solidity >=0.4.22 <0.9.0;\r\nimport \"./Ownable.sol\";\r\n\r\ncontract ManagerOgani is Ownable {\r\n    uint256 public transactionCount;\r\n    uint256 public orderNumber;\r\n    mapping (uint => PaymentObject) public listPayments;\r\n    mapping (uint => UserPayment) public listUserOrder;\r\n    mapping (address => uint256) public IndexUsers;\r\n    mapping (uint256 => address) public AddressUsers;\r\n    mapping (address => bool) public includeUser;\r\n    receive() external payable {}\r\n    fallback() external payable {}\r\n    struct PaymentObject {\r\n        string idProduct;\r\n        uint256 totalPayment;\r\n        address supplier;\r\n        address currentAdmin;\r\n    } \r\n    struct UserPayment{\r\n        string idOrder;\r\n        uint256 totalPayment;\r\n        address userAddress;\r\n    }\r\n    function getBalance() public view returns(uint) {\r\n        return address(this).balance;\r\n    }\r\n    function userPaymentOrder(string memory _idOrder) public payable {\r\n       UserPayment memory newUserOrder = UserPayment({\r\n            idOrder: _idOrder,\r\n            totalPayment: msg.value,\r\n            userAddress: msg.sender\r\n        });\r\n        if(!includeUser[msg.sender]){\r\n            uint256 index = orderNumber++;\r\n            includeUser[msg.sender] = true;\r\n            IndexUsers[msg.sender] = index;\r\n            AddressUsers[index]= msg.sender;\r\n            listUserOrder[index] = newUserOrder;\r\n        }else{\r\n            uint256 IndexUser;\r\n            for (uint i = 0; i < orderNumber; i++) {\r\n               address findIndexuser = AddressUsers[i];\r\n               if(findIndexuser == msg.sender){\r\n                    IndexUser= i;\r\n               }\r\n            }\r\n            listUserOrder[IndexUser]= newUserOrder ;\r\n        }\r\n       \r\n    }\r\n    // function getPaymentOrderUser() public view returns (UserPayment[] memory){\r\n    //     UserPayment[]  memory listOrder  = new UserPayment[](orderNumber);\r\n    //     for (uint i = 0; i < orderNumber; i++) {\r\n    //        uint currentUser  = listUser[msg.sender];\r\n    //        if(currentUser == i)\r\n    //        { \r\n    //         UserPayment storage currentObject = listUserOrder[i];\r\n    //         listOrder[i] = currentObject;\r\n    //        }\r\n    //     }\r\n    //     return listOrder;\r\n    // }\r\n    function getAllPaymentOrder() public view returns (UserPayment[] memory){\r\n        UserPayment[]  memory listOrder  = new UserPayment[](orderNumber);\r\n        for (uint i = 0; i < orderNumber; i++) {\r\n            UserPayment storage currentObject = listUserOrder[i];\r\n            listOrder[i]= currentObject;\r\n        }\r\n        return listOrder;\r\n    }\r\n   \r\n    \r\n    function transferToSupplier(string memory _idProduct, address _supplier) public payable includeManagementList(msg.sender) {\r\n        listPayments[transactionCount] = PaymentObject(_idProduct,msg.value,_supplier,msg.sender);\r\n        transactionCount++;\r\n        payable(_supplier).transfer(msg.value);\r\n    }\r\n    function  getTransaction(uint256 index) public view returns (PaymentObject memory){\r\n        PaymentObject[]    memory listTransaction = new PaymentObject[](transactionCount);\r\n        for (uint i = 0; i < transactionCount; i++) {\r\n            PaymentObject storage currentObject = listPayments[i];\r\n            listTransaction[i] = currentObject;\r\n        }\r\n        return listTransaction[index];\r\n    }\r\n    function getAllTransaction () external view returns (PaymentObject[] memory){\r\n        PaymentObject[]  memory listTransaction = new PaymentObject[](transactionCount);\r\n        for (uint i = 0; i < transactionCount; i++) {\r\n            PaymentObject storage currentObject = listPayments[i];\r\n            listTransaction[i] = currentObject;\r\n        }\r\n        return listTransaction;\r\n    }\r\n    \r\n    \r\n    function withdraw(address _to) external payable{\r\n        payable(_to).transfer(msg.value);\r\n    }\r\n    function withdrawMoneyTo(address payable _to) public {\r\n        _to.transfer(getBalance());\r\n    }\r\n    function refundsOrderUser(address payable _walletuser,uint _amount) public payable {\r\n        _walletuser.transfer(_amount);\r\n    }\r\n}",
  "sourcePath": "C:\\Users\\nguye\\OneDrive\\Desktop\\DACS5\\Ecom-Block-V2\\contracts\\ManagerOgani.sol",
  "compiler": {
    "name": "solc",
    "version": "0.8.11+commit.d7f03943.Emscripten.clang"
  },
  "schemaVersion": "3.4.4",
  "updatedAt": "2022-04-24T10:48:23.568Z",
  "networkType": "ethereum",
  "devdoc": {
    "kind": "dev",
    "methods": {
      "isOwner()": {
        "returns": {
          "_0": "true if `msg.sender` is the owner of the contract."
        }
      },
      "owner()": {
        "returns": {
          "_0": "the address of the owner."
        }
      },
      "renounceOwnership()": {
        "details": "Allows the current owner to relinquish control of the contract."
      },
      "transferOwnership(address)": {
        "details": "Allows the current owner to transfer control of the contract to a newOwner.",
        "params": {
          "newOwner": "The address to transfer ownership to."
        }
      }
    },
    "version": 1
  },
  "userdoc": {
    "kind": "user",
    "methods": {
      "renounceOwnership()": {
        "notice": "Renouncing to ownership will leave the contract without an owner. It will not be possible to call the functions with the `onlyOwner` modifier anymore."
      }
    },
    "version": 1
  }
}