{
  "contractName": "Ownable",
  "abi": [
    {
      "inputs": [],
      "stateMutability": "nonpayable",
      "type": "constructor"
    },
    {
      "anonymous": false,
      "inputs": [
        {
          "indexed": true,
          "internalType": "address",
          "name": "previousOwner",
          "type": "address"
        },
        {
          "indexed": true,
          "internalType": "address",
          "name": "newOwner",
          "type": "address"
        }
      ],
      "name": "OwnershipTransferred",
      "type": "event"
    },
    {
      "inputs": [
        {
          "internalType": "address",
          "name": "",
          "type": "address"
        }
      ],
      "name": "isManagers",
      "outputs": [
        {
          "internalType": "bool",
          "name": "",
          "type": "bool"
        }
      ],
      "stateMutability": "view",
      "type": "function"
    },
    {
      "inputs": [],
      "name": "managerID",
      "outputs": [
        {
          "internalType": "uint256",
          "name": "",
          "type": "uint256"
        }
      ],
      "stateMutability": "view",
      "type": "function"
    },
    {
      "inputs": [
        {
          "internalType": "uint256",
          "name": "",
          "type": "uint256"
        }
      ],
      "name": "managers",
      "outputs": [
        {
          "internalType": "address",
          "name": "",
          "type": "address"
        }
      ],
      "stateMutability": "view",
      "type": "function"
    },
    {
      "inputs": [],
      "name": "owner",
      "outputs": [
        {
          "internalType": "address",
          "name": "",
          "type": "address"
        }
      ],
      "stateMutability": "view",
      "type": "function"
    },
    {
      "inputs": [],
      "name": "isManager",
      "outputs": [
        {
          "internalType": "bool",
          "name": "",
          "type": "bool"
        }
      ],
      "stateMutability": "view",
      "type": "function"
    },
    {
      "inputs": [],
      "name": "isOwner",
      "outputs": [
        {
          "internalType": "bool",
          "name": "",
          "type": "bool"
        }
      ],
      "stateMutability": "view",
      "type": "function"
    },
    {
      "inputs": [
        {
          "internalType": "address",
          "name": "_newManager",
          "type": "address"
        }
      ],
      "name": "addManager",
      "outputs": [],
      "stateMutability": "nonpayable",
      "type": "function"
    },
    {
      "inputs": [],
      "name": "getAllManager",
      "outputs": [
        {
          "internalType": "address[]",
          "name": "",
          "type": "address[]"
        }
      ],
      "stateMutability": "view",
      "type": "function"
    },
    {
      "inputs": [],
      "name": "renounceOwnership",
      "outputs": [],
      "stateMutability": "nonpayable",
      "type": "function"
    },
    {
      "inputs": [
        {
          "internalType": "address",
          "name": "newOwner",
          "type": "address"
        }
      ],
      "name": "transferOwnership",
      "outputs": [],
      "stateMutability": "nonpayable",
      "type": "function"
    }
  ],
  "bytecode": "0x608060405234801561001057600080fd5b50336000806101000a81548173ffffffffffffffffffffffffffffffffffffffff021916908373ffffffffffffffffffffffffffffffffffffffff160217905550610060336100e060201b60201c565b60008054906101000a900473ffffffffffffffffffffffffffffffffffffffff1673ffffffffffffffffffffffffffffffffffffffff16600073ffffffffffffffffffffffffffffffffffffffff167f8be0079c531659141344cd1fd0a4f28419497f9722a3daafe3b4186f6b6457e060405160405180910390a361034b565b6100ee6101f560201b60201c565b61012d576040517f08c379a0000000000000000000000000000000000000000000000000000000008152600401610124906102a9565b60405180910390fd5b60006003600081548092919061014290610302565b919050559050816002600083815260200190815260200160002060006101000a81548173ffffffffffffffffffffffffffffffffffffffff021916908373ffffffffffffffffffffffffffffffffffffffff16021790555060018060008473ffffffffffffffffffffffffffffffffffffffff1673ffffffffffffffffffffffffffffffffffffffff16815260200190815260200160002060006101000a81548160ff0219169083151502179055505050565b60008060009054906101000a900473ffffffffffffffffffffffffffffffffffffffff1673ffffffffffffffffffffffffffffffffffffffff163373ffffffffffffffffffffffffffffffffffffffff1614905090565b600082825260208201905092915050565b7f53656e646572206e6f7420617574686f72697a65642e00000000000000000000600082015250565b600061029360168361024c565b915061029e8261025d565b602082019050919050565b600060208201905081810360008301526102c281610286565b9050919050565b7f4e487b7100000000000000000000000000000000000000000000000000000000600052601160045260246000fd5b6000819050919050565b600061030d826102f8565b91507fffffffffffffffffffffffffffffffffffffffffffffffffffffffffffffffff8214156103405761033f6102c9565b5b600182019050919050565b610b4c806200035b6000396000f3fe608060405234801561001057600080fd5b506004361061009e5760003560e01c8063715018a611610066578063715018a61461015b5780638da5cb5b146101655780638f32d59b14610183578063c56a3e88146101a1578063f2fde38b146101bf5761009e565b806313102a04146100a35780632d06177a146100c15780633d39c260146100dd5780635a73d5ed1461010d5780636413c35e1461012b575b600080fd5b6100ab6101db565b6040516100b8919061077f565b60405180910390f35b6100db60048036038101906100d691906107fd565b6101e1565b005b6100f760048036038101906100f29190610856565b6102f0565b6040516101049190610892565b60405180910390f35b610115610323565b604051610122919061096b565b60405180910390f35b610145600480360381019061014091906107fd565b610423565b60405161015291906109a8565b60405180910390f35b610163610443565b005b61016d610548565b60405161017a9190610892565b60405180910390f35b61018b610571565b60405161019891906109a8565b60405180910390f35b6101a96105c8565b6040516101b691906109a8565b60405180910390f35b6101d960048036038101906101d491906107fd565b61061c565b005b60035481565b6101e9610571565b610228576040517f08c379a000000000000000000000000000000000000000000000000000000000815260040161021f90610a20565b60405180910390fd5b60006003600081548092919061023d90610a6f565b919050559050816002600083815260200190815260200160002060006101000a81548173ffffffffffffffffffffffffffffffffffffffff021916908373ffffffffffffffffffffffffffffffffffffffff16021790555060018060008473ffffffffffffffffffffffffffffffffffffffff1673ffffffffffffffffffffffffffffffffffffffff16815260200190815260200160002060006101000a81548160ff0219169083151502179055505050565b60026020528060005260406000206000915054906101000a900473ffffffffffffffffffffffffffffffffffffffff1681565b6060600060035467ffffffffffffffff81111561034357610342610ab8565b5b6040519080825280602002602001820160405280156103715781602001602082028036833780820191505090505b50905060005b60035481101561041b5760006002600083815260200190815260200160002060009054906101000a900473ffffffffffffffffffffffffffffffffffffffff169050808383815181106103cd576103cc610ae7565b5b602002602001019073ffffffffffffffffffffffffffffffffffffffff16908173ffffffffffffffffffffffffffffffffffffffff168152505050808061041390610a6f565b915050610377565b508091505090565b60016020528060005260406000206000915054906101000a900460ff1681565b61044b610571565b61048a576040517f08c379a000000000000000000000000000000000000000000000000000000000815260040161048190610a20565b60405180910390fd5b600073ffffffffffffffffffffffffffffffffffffffff1660008054906101000a900473ffffffffffffffffffffffffffffffffffffffff1673ffffffffffffffffffffffffffffffffffffffff167f8be0079c531659141344cd1fd0a4f28419497f9722a3daafe3b4186f6b6457e060405160405180910390a360008060006101000a81548173ffffffffffffffffffffffffffffffffffffffff021916908373ffffffffffffffffffffffffffffffffffffffff160217905550565b60008060009054906101000a900473ffffffffffffffffffffffffffffffffffffffff16905090565b60008060009054906101000a900473ffffffffffffffffffffffffffffffffffffffff1673ffffffffffffffffffffffffffffffffffffffff163373ffffffffffffffffffffffffffffffffffffffff1614905090565b6000600160003373ffffffffffffffffffffffffffffffffffffffff1673ffffffffffffffffffffffffffffffffffffffff16815260200190815260200160002060009054906101000a900460ff16905090565b610624610571565b610663576040517f08c379a000000000000000000000000000000000000000000000000000000000815260040161065a90610a20565b60405180910390fd5b61066c8161066f565b50565b600073ffffffffffffffffffffffffffffffffffffffff168173ffffffffffffffffffffffffffffffffffffffff1614156106a957600080fd5b8073ffffffffffffffffffffffffffffffffffffffff1660008054906101000a900473ffffffffffffffffffffffffffffffffffffffff1673ffffffffffffffffffffffffffffffffffffffff167f8be0079c531659141344cd1fd0a4f28419497f9722a3daafe3b4186f6b6457e060405160405180910390a3806000806101000a81548173ffffffffffffffffffffffffffffffffffffffff021916908373ffffffffffffffffffffffffffffffffffffffff16021790555050565b6000819050919050565b61077981610766565b82525050565b60006020820190506107946000830184610770565b92915050565b600080fd5b600073ffffffffffffffffffffffffffffffffffffffff82169050919050565b60006107ca8261079f565b9050919050565b6107da816107bf565b81146107e557600080fd5b50565b6000813590506107f7816107d1565b92915050565b6000602082840312156108135761081261079a565b5b6000610821848285016107e8565b91505092915050565b61083381610766565b811461083e57600080fd5b50565b6000813590506108508161082a565b92915050565b60006020828403121561086c5761086b61079a565b5b600061087a84828501610841565b91505092915050565b61088c816107bf565b82525050565b60006020820190506108a76000830184610883565b92915050565b600081519050919050565b600082825260208201905092915050565b6000819050602082019050919050565b6108e2816107bf565b82525050565b60006108f483836108d9565b60208301905092915050565b6000602082019050919050565b6000610918826108ad565b61092281856108b8565b935061092d836108c9565b8060005b8381101561095e57815161094588826108e8565b975061095083610900565b925050600181019050610931565b5085935050505092915050565b60006020820190508181036000830152610985818461090d565b905092915050565b60008115159050919050565b6109a28161098d565b82525050565b60006020820190506109bd6000830184610999565b92915050565b600082825260208201905092915050565b7f53656e646572206e6f7420617574686f72697a65642e00000000000000000000600082015250565b6000610a0a6016836109c3565b9150610a15826109d4565b602082019050919050565b60006020820190508181036000830152610a39816109fd565b9050919050565b7f4e487b7100000000000000000000000000000000000000000000000000000000600052601160045260246000fd5b6000610a7a82610766565b91507fffffffffffffffffffffffffffffffffffffffffffffffffffffffffffffffff821415610aad57610aac610a40565b5b600182019050919050565b7f4e487b7100000000000000000000000000000000000000000000000000000000600052604160045260246000fd5b7f4e487b7100000000000000000000000000000000000000000000000000000000600052603260045260246000fdfea2646970667358221220931182c91bfde2cdabe4b962f1db86b2ae3047495677c4d295f09259fc856c6964736f6c634300080b0033",
  "immutableReferences": {},
  "source": "// SPDX-License-Identifier: MIT\r\npragma solidity >=0.4.22 <0.9.0;\r\n\r\ncontract Ownable {\r\n  address private _owner;    \r\n  mapping(address => bool) public  isManagers;  \r\n  mapping(uint =>address) public  managers;  \r\n  uint public managerID;\r\n  event OwnershipTransferred(\r\n    address indexed previousOwner,\r\n    address indexed newOwner\r\n  );\r\n  constructor() {\r\n    _owner = msg.sender;\r\n    addManager(msg.sender);\r\n    emit OwnershipTransferred(address(0), _owner);\r\n  }\r\n  function owner() public view returns(address) {\r\n    return _owner;\r\n  }\r\n  modifier onlyOwner() {\r\n    require(isOwner(),\"Sender not authorized.\");\r\n    _;\r\n  }\r\n  modifier onlyManagers() {\r\n        require(isManager(),\" You not is a Manager\" );\r\n        _;\r\n    }\r\n\r\n  function isManager() public view returns (bool) {\r\n    return isManagers[msg.sender];\r\n  }\r\n  function isOwner() public view returns(bool) {\r\n    return msg.sender == _owner;\r\n  }\r\n function addManager(address _newManager) public onlyOwner {\r\n        uint index = managerID++;\r\n        managers[index] = _newManager;\r\n        isManagers[_newManager] = true;\r\n    }\r\n  function getAllManager() public view returns (address[] memory) {\r\n          address[]  memory allManager  = new address[](managerID);\r\n          for (uint i = 0; i < managerID; i++) {\r\n              address manager = managers[i];\r\n              allManager[i]= manager;\r\n          }\r\n          return allManager;\r\n  }\r\n  function renounceOwnership() public onlyOwner {\r\n    emit OwnershipTransferred(_owner, address(0));\r\n    _owner = address(0);\r\n  }\r\n  function transferOwnership(address newOwner) public onlyOwner {\r\n    _transferOwnership(newOwner);\r\n  }\r\n  function _transferOwnership(address newOwner) internal {\r\n    require(newOwner != address(0));\r\n    emit OwnershipTransferred(_owner, newOwner);\r\n    _owner = newOwner;\r\n  }\r\n}\r\n",
  "sourcePath": "C:\\Users\\nguye\\OneDrive\\Desktop\\DACS5\\Ecom-Block-V2\\contracts\\Ownable.sol",
  "compiler": {
    "name": "solc",
    "version": "0.8.11+commit.d7f03943.Emscripten.clang"
  },
  "schemaVersion": "3.4.4",
  "updatedAt": "2022-07-12T07:29:08.610Z",
  "devdoc": {
    "kind": "dev",
    "methods": {},
    "version": 1
  },
  "userdoc": {
    "kind": "user",
    "methods": {},
    "version": 1
  }
}